:020000040800F2
:1000000000060020E1020008E3020008E302000805
:10001000E3020008E3020008E3020008E30200082C
:10002000E3020008E3020008E3020008592B00087D
:10003000E3020008E3020008E3020008E30200080C
:10004000E3020008E3020008E3020008E3020008FC
:10005000E3020008E3020008E3020008E3020008EC
:10006000E3020008E3020008E30200082911000887
:10007000511100087D110008A9110008D5110008D0
:10008000FD11000829120008E3020008E30200083D
:10009000E3020008E3020008E3020008E3020008AC
:1000A000E3020008E3020008E3020008E30200089C
:1000B000F9430008E3020008E3020008E302000835
:1000C000E3020008E3020008E3020008E30200087C
:1000D000E3020008E3020008E3020008E30200086C
:1000E000E3020008E3020008E3020008E30200085C
:1000F000E3020008E3020008E302000855120008CA
:10010000E3020008E3020008E3020008E30200083B
:10011000E3020008E3020008E3020008E30200082B
:1001200081120008A9120008D51200080113000866
:100130002D130008E3020008E3020008E3020008B0
:10014000E3020008E3020008E3020008E3020008FB
:100150005513000881130008AD130008E3020008DE
:10016000E3020008E3020008E3020008E3020008DB
:10017000E3020008F1370008E3020008E302000888
:10018000E3020008E3020008E3020008E3020008BB
:10019000E3020008E3020008E3020008E3020008AB
:1001A000E3020008E3020008E3020008E30200089B
:1001B000E3020008E3020008E3020008E30200088B
:1001C000E3020008E3020008E3020008E30200087B
:1001D000E3020008DD370008E3020008E30200083C
:1001E000E3020008E3020008E3020008E30200085B
:1001F000E3020008E3020008E3020008E30200084B
:10020000E3020008E3020008E3020008E30200083A
:10021000E3020008E3020008E3020008E30200082A
:10022000E3020008E3020008E3020008E30200081A
:10023000E3020008E3020008E3020008E30200080A
:10024000E3020008E3020008E3020008E3020008FA
:10025000E3020008E3020008E3020008E3020008EA
:10026000E3020008E3020008E3020008E3020008DA
:10027000E3020008E3020008E3020008E3020008CA
:10028000E3020008E3020008E3020008E3020008BA
:10029000E3020008E3020008E3020008E3020008AA
:1002A000E3020008E3020008E3020008E30200089A
:1002B000E3020008E3020008E3020008E30200088A
:1002C000E3020008E3020008E3020008E30200087A
:1002D000E3020008E3020008E3020008E30200086A
:1002E00002E000F000F8FEE772B6374880F30888B5
:1002F000364880F3098836483649086040F20000E5
:10030000CCF200004EF63471CEF200010860BFF36B
:100310004F8FBFF36F8F40F20000C0F2F0004EF637
:100320008851CEF200010860BFF34F8FBFF36F8F8B
:100330004FF00000E1EE100A4EF63C71CEF20001E3
:100340000860022080F31488BFF36F8F02F066FC10
:1003500003F00AFE4FF055301F491B4A91423CBF43
:1003600041F8040BFAE71D49184A91423CBF41F895
:10037000040BFAE71A491B4A1B4B9A423EBF51F83D
:10038000040B42F8040BF8E700201849184A914280
:100390003CBF41F8040BFAE702F07EFC03F068FE74
:1003A000144C154DAC4203DA54F8041B8847F9E7A6
:1003B00000F042F8114C124DAC4203DA54F8041B21
:1003C0008847F9E702F066BC000600200022002002
:1003D0000000000808ED00E00000002000060020FA
:1003E000F8480008002200205C2200206022002043
:1003F00004440020E0020008E0020008E0020008D7
:10040000E00200082DE9F04F2DED108AC1F80CD064
:10041000D0F80CD0BDEC108ABDE8F08F002383F338
:1004200011882846A047002001F04AFEFEE701F0AF
:10043000CFFD00DFFEE7000038B500F037FC00F02C
:10044000C5FD02F045FB054602F078FB0446C0B945
:100450000E4B9D4217D001339D4241F2883512BFA9
:10046000044600250124002002F03CFB0CB100F002
:1004700073F800F07FFD284600F01CF900F06CF8DE
:10048000F9E70025EFE70546EDE700BF010007B0FB
:1004900008B500F0DDFBA0F120035842584108BD2B
:1004A00007B5042101900DEB010000F0EFFB03B054
:1004B0005DF804FB38B5302383F3118817480368CF
:1004C0000BB101F0C9FE0023154A4FF47A711348AD
:1004D00001F0B8FE002383F31188124C236813B196
:1004E0002368013B2360636813B16368013B636069
:1004F0000D4D2B7833B963687BB9022000F09CFC6A
:10050000322363602B78032B07D163682BB9022059
:1005100000F092FC4FF47A73636038BD60220020D3
:10052000B50400088023002078220020084B1870B2
:1005300003280CD8DFE800F008050208022000F0CC
:100540006DBC022000F05ABC024B00225A6070477A
:100550007822002080230020F8B5504B504A1C46DA
:100560001968013100F0998004339342F8D1626830
:100570004C4B9A4240F291804B4B9B6803F10063D5
:1005800003F500339A4280F08880002000F0A8FB39
:100590000220FFF7CBFF454B0021D3F8E820C3F83A
:1005A000E810D3F81021C3F81011D3F81021D3F8B4
:1005B000EC20C3F8EC10D3F81421C3F81411D3F8CD
:1005C0001421D3F8F020C3F8F010D3F81821C3F8A1
:1005D0001811D3F81821D3F8802042F00062C3F834
:1005E0008020D3F8802022F00062C3F88020D3F866
:1005F0008020D3F8802042F00072C3F88020D3F826
:10060000802022F00072C3F88020D3F8803072B6C8
:100610004FF0E023C3F8084DD4E90004BFF34F8F37
:10062000BFF36F8F224AC2F88410BFF34F8F536914
:1006300023F480335361BFF34F8FD2F8803043F6F9
:10064000E076C3F3C905C3F34E335B0103EA060C3E
:1006500029464CEA81770139C2F87472F9D2203BFD
:1006600013F1200FF2D1BFF34F8FBFF36F8FBFF3A2
:100670004F8FBFF36F8F536923F40033536100230F
:10068000C2F85032BFF34F8FBFF36F8F302383F325
:100690001188854680F308882047F8BD00000208CD
:1006A00020000208FFFF0108002200200044025839
:1006B00000ED00E02DE9F04F95B0DFF8D892202250
:1006C000FF21029004A8D9F8085000F0FDFBA84AC9
:1006D0001378A3B90121A74811700360302383F375
:1006E000118803680BB101F0B7FD0023A24A4FF453
:1006F0007A71A04801F0A6FD002383F31188029BC4
:1007000013B19E4B029A1A609D4A1378032B03D0B3
:1007100000231370994A53604FF0000B029C5E4611
:10072000DA46CDF804B0012000F078FB24B1934BF9
:100730001B68002B00F02882002000F089FAB0F13D
:100740000008F3DB012000F059FBA8F121031F2B67
:10075000E9D801A252F823F0D9070008F5070008EC
:100760008308000827070008270700082707000854
:100770000D090008FF0A0008F10900084D0A0008E9
:10078000730A0008990A000827070008AB0A000846
:10079000CF0A0008470B0008610800082707000877
:1007A0008F0B0008E507000861080008270700080C
:1007B0004D0A000827070008270700082707000838
:1007C0002707000827070008270700082707000851
:1007D00027070008830800080220FFF759FE0028B9
:1007E00040F0FF81029B02216648BBF1000F08BF69
:1007F0001C4640E04FF47A7000F02AFA071EF1DB45
:100800000220FFF745FE0028ECD0013F052F00F243
:10081000EA81DFE807F003070A0D10330520FFF730
:100820003FFE14E0D9F80000F9E7D9F80400F6E734
:10083000D9F80800F3E74FF01C08404608F1040817
:1008400000F050FAFFF72CFEB8F12C0FF5D1012083
:10085000019B4FF0000A00FA07F71F43FBB2019318
:1008600000F07EFB2EB1019B03F00B030B2B08BFA6
:1008700000240221444800F009FA54E7D9F80C009A
:10088000CDE7002EAED0019B03F00B030B2BA9D1BB
:100890000220FFF7FDFD07460028A3D00120002617
:1008A00000F01EFA0220FFF741FE1FFA86FB5846B1
:1008B00000F026FA044688B1A8F1400258460136F5
:1008C0005142514100F02CFA0028EED1BB460446BB
:1008D00002212E483E4600F0D9F924E725460120A2
:1008E000FFF724FED9F80830AB4207D9284600F0BC
:1008F000F9F9013040F07A810435F3E70025204B07
:10090000BB463E461D701D4B5D60A9E7002E3FF4BF
:1009100069AF019B03F00B030B2B7FF463AF022045
:10092000FFF704FE322000F093F9B0F10008FFF663
:1009300059AF18F003077FF455AF08EB0503D9F85A
:10094000082093423FF64EAFB8F5807F3FF74AAF9D
:100950000F4BB84503931FDD4FF47A7000F078F920
:100960000028FFF63FAF039B013703F8010BF0E7C8
:100970007C23002060220020B50400088023002092
:100980007822002090440008884400088C44000825
:100990007C22002000220020C820FFF779FD0746B6
:1009A00000283FF41FAF1F2D11D8C5F1200204AB62
:1009B00025F003008F494245184428BF4246039260
:1009C00000F05CFA039AFF218A4800F07DFA4FEAB2
:1009D000A803C8F3870287492846039300F07CFAEE
:1009E000064600283FF474AF039B05EB830537E709
:1009F0000220FFF74DFD00283FF4F4AE00F0AEF901
:100A000000283FF4EFAE0027B846D9F80830BB42C3
:100A100018D91F2F11D8049B01330ED027F00303E0
:100A200014AA134453F8403C0C93404604220CA9EA
:100A3000043700F063FB8046E7E7384600F052F9E0
:100A40000C90F2E74046FFF72BFD09E700236421F5
:100A50000CA80C9300F010F900287FF4C3AE02201C
:100A6000FFF716FD00283FF4BDAE0C9800F06CF9BE
:100A7000E9E7002364210CA80C9300F0FDF800289E
:100A80007FF4B0AE0220FFF703FD00283FF4AAAECA
:100A90000C9800F05BF9D6E70220FFF7F9FC00287C
:100AA0003FF4A0AE00F06AF9CDE70220FFF7F0FCBA
:100AB00000283FF497AE0CA9142000F065F90390CC
:100AC000FFF7EEFC03990CA800F0E0F8C8E602205E
:100AD000FFF7DEFC00283FF485AE474B0CAF03F177
:100AE000100C1868083353F8041C3A46634503C2D7
:100AF0001746F6D11020FFF7D3FC1021E3E7322090
:100B000000F0A6F8071EFFF66DAEBB077FF46AAED5
:100B100007EB0A03D9F8082093423FF663AE0220A0
:100B2000FFF7B6FC00283FF45DAE27F003075744FB
:100B3000BA453FF495AE50460AF1040A00F0D2F8E7
:100B4000FFF7AEFCF4E74FF47A70FFF7A1FC002842
:100B50003FF448AE00F002F9002849D0049B01336D
:100B60000BD0082204A9002000F0B6F900283FD0DD
:100B70002022FF2104A800F0A7F92048022100F05C
:100B800085F81F4801F0A2FA15B0BDE8F08F002EDD
:100B90003FF428AE019B03F00B030B2B7FF422AE36
:100BA000002364210CA80C9300F066F80746002887
:100BB0007FF418AE0220FFF76BFC804600283FF45C
:100BC00011AE02210D4800F061F841F2883001F0C9
:100BD0007DFA0C9800F0F8F946463C4600F0C0F962
:100BE000A1E506463CE64FF0000AFBE5BB466FE692
:100BF00037466DE67C2200207444000888440008D3
:100C0000A08601000F4B70B51B780C460133DBB298
:100C1000012B11D80C4D4FF47A732968A2FB0332D3
:100C200022460E6A01462846B047844204D1074B4B
:100C3000002201201A7070BD4FF4FA7001F046FADC
:100C40000020F8E710220020B0260020B423002066
:100C5000002307B5024601210DF107008DF807308A
:100C6000FFF7D0FF20B19DF8070003B05DF804FB4B
:100C70004FF0FF30F9E700000A46042108B5FFF7FE
:100C8000C1FF80F00100C0B2404208BD30B4054C45
:100C90000A46014623682046DD69034BAC4630BC5A
:100CA000604700BFB0260020A086010070B50A4E44
:100CB00000240A4D01F024FD3080286833888342E7
:100CC00008D901F019FD2B6804440133B4F5003F45
:100CD0002B60F2D370BD00BFB62300208823002014
:100CE00001F0E8BD00F1006000F5003000687047D9
:100CF00000F10060920000F5003001F05DBD0000E1
:100D0000054B1A68054B1B889B1A834202D9104475
:100D100001F0F2BC0020704788230020B623002099
:100D200038B50446074D29B128682044BDE838404D
:100D300001F0FABC2868204401F0E4FC0028F3D05C
:100D400038BD00BF882300200020704700F1FF500D
:100D500000F58F10D0F8000870470000064991F8A0
:100D6000243033B100230822086A81F82430FFF7C9
:100D7000BFBF0120704700BF8C230020014B1868C3
:100D8000704700BF0010005C194B01380322084473
:100D900070B51D68174BC5F30B042D0C1E88A642B9
:100DA0000BD15C680A46013C824213460FD214F90B
:100DB000016F4EB102F8016BF6E7013A03F1080347
:100DC000ECD181420B4602D22C2203F8012B0424E1
:100DD000094A1688AE4204D1984284BF967803F837
:100DE000016B013C02F10402F3D1581A70BD00BF3F
:100DF0000010005C14220020C0440008022804D126
:100E0000054B4FF400129A6170470128FCD1024B48
:100E10004FF40022F7E700BF00100258022803D168
:100E2000044B20229A6170470128FCD1014B082213
:100E3000F8E700BF00100258022805D1064A53699E
:100E400083F02003536170470128FCD1024A5369A3
:100E500083F00803F6E700BF0010025870B504469F
:100E60004FF47A764CB1412C254628BF412506FB2C
:100E700005F0641B01F02AF9F4E770BD002310B5FA
:100E8000934203D0CC5CC4540133F9E710BD000099
:100E9000013810B510F9013F3BB191F900409C4277
:100EA00003D11AB10131013AF4E71AB191F90020E6
:100EB000981A10BD1046FCE703460246D01A12F9F4
:100EC000011B0029FAD1704702440346934202D025
:100ED00003F8011BFAE770472DE9F8431F4D14464C
:100EE0000746884695F8242052BBDFF870909CB3E3
:100EF00095F824302BB92022FF2148462F62FFF7B6
:100F0000E3FF95F824004146C0F1080205EB80009C
:100F1000A24228BF2246D6B29200FFF7AFFF95F853
:100F20002430A41B17441E449044E4B2F6B2082EA9
:100F300085F82460DBD1FFF711FF0028D7D108E046
:100F40002B6A03EB82038342CFD0FFF707FF002811
:100F5000CBD10020BDE8F8830120FBE78C230020E3
:100F6000024B1A78024B1A70704700BFB42300205E
:100F70001022002010B5114C114800F0B5FB21469D
:100F80000F4800F0DDFB24684FF47A70D4F890200D
:100F9000D2F8043843F00203C2F80438FFF75EFFCA
:100FA0000849204600F0FCFCD4F89020D2F8043820
:100FB00023F00203C2F8043810BD00BF7C460008CD
:100FC000B026002084460008704700002DE9F04755
:100FD00071B6464B01201D68454BB3F800800023D5
:100FE0001A46194600F08AFA0446802001F000FDF6
:100FF0000746002862D0002C60D03E4EADB24FF0C4
:10100000800A7369284643F0C0637361D6F81431CF
:1010100043F0C063C6F8143101F06EFB05EB080223
:1010200000FB05F34FF4D06C50434FF03D0E984257
:1010300033D93269520144D4D6F81021510140D439
:10104000216803F100628A602268D7602268C2F8D2
:1010500004A02268C2F800C0D4F80090D9F800209B
:1010600042F00102C9F80020D4F80090D9F800201D
:1010700022F01E02C9F80020D4F80090D9F8002010
:10108000D207FBD494F80C90803361680EFA09F211
:101090000A60CCE7002001F00DFC204600F06EFA5B
:1010A000384601F0DBFC134B5A6942F0C0625A61CA
:1010B000D3F8142142F0C062C3F8142161B6BDE830
:1010C000F0870D4B9A6A42F400729A629A6A42F46F
:1010D00000429A6261B60026012001F0EBFBB045A8
:1010E000D8D9A819013601F01FFBF8E788230020A2
:1010F000B62300200020005200ED00E030B50A4485
:10110000084D91420DD011F8013B5840082340F39F
:101110000004013B2C4013F0FF0384EA5000F6D199
:10112000EFE730BD2083B8ED08B5074B074A1968D3
:1011300001F03D01996053680BB190689847BDE894
:10114000084001F041BD00BF00000240B82300206C
:1011500008B5084B1968890901F03D018A019A60B8
:10116000054AD3680BB110699847BDE8084001F003
:101170002BBD00BF00000240B823002008B5084B7B
:101180001968090C01F03D010A049A60054A536987
:101190000BB190699847BDE8084001F015BD00BF4C
:1011A00000000240B823002008B5084B1968890DDB
:1011B00001F03D018A059A60054AD3690BB1106AB6
:1011C0009847BDE8084001F0FFBC00BF00000240A6
:1011D000B823002008B5074B074A596801F03D01C4
:1011E000D960536A0BB1906A9847BDE8084001F096
:1011F000EBBC00BF00000240B823002008B5084B3C
:101200005968890901F03D018A01DA60054AD36A0B
:101210000BB1106B9847BDE8084001F0D5BC00BF8A
:1012200000000240B823002008B5084B5968090C9B
:1012300001F03D010A04DA60054A536B0BB1906B73
:101240009847BDE8084001F0BFBC00BF0000024065
:10125000B823002008B5084B5968890D01F03D01FD
:101260008A05DA60054AD36B0BB1106C9847BDE86C
:10127000084001F0A9BC00BF00000240B8230020D4
:1012800008B5074B074A196801F03D019960536C96
:101290000BB1906C9847BDE8084001F095BC00BFC9
:1012A00000040240B823002008B5084B19688909DA
:1012B00001F03D018A019A60054AD36C0BB1106DB3
:1012C0009847BDE8084001F07FBC00BF0004024021
:1012D000B823002008B5084B1968090C01F03D013E
:1012E0000A049A60054A536D0BB1906D9847BDE8AA
:1012F000084001F069BC00BF00040240B823002090
:1013000008B5084B1968890D01F03D018A059A60FE
:10131000054AD36D0BB1106E9847BDE8084001F047
:1013200053BC00BF00040240B823002008B5074B9F
:10133000074A596801F03D01D960536E0BB1906EB8
:101340009847BDE8084001F03FBC00BF00040240E0
:10135000B823002008B5084B5968890901F03D0100
:101360008A01DA60054AD36E0BB1106F9847BDE869
:10137000084001F029BC00BF00040240B82300204F
:1013800008B5084B5968090C01F03D010A04DA6000
:10139000054A536F0BB1906F9847BDE8084001F0C4
:1013A00013BC00BF00040240B823002008B5084B5E
:1013B0005968890D01F03D018A05DA60054AD36F4D
:1013C00013B1D2F880009847BDE8084001F0FCBB9B
:1013D00000040240B823002000230C4910B51A462F
:1013E0000B4C0B6054F82300026001EB4300043304
:1013F0004260402BF6D1074A4FF0FF339360D36031
:10140000C2F80834C2F80C3410BD00BFB823002065
:10141000D0440008000002400F28F8B510D9102869
:1014200010D0112811D0122808D10F240720DFF87E
:10143000C8E00126DEF80050A04208D9002653E09B
:101440000446F4E70F240020F1E70724FBE706FA3F
:1014500000F73D424AD1264C4FEA001C3D4304EBC5
:1014600000160EEBC000CEF80050C0E90123FBB21D
:1014700073B12048D0F8D83043F00103C0F8D83019
:10148000D0F8003143F00103C0F80031D0F800314A
:1014900017F47F4F0ED01748D0F8D83043F002032E
:1014A000C0F8D830D0F8003143F00203C0F8003162
:1014B000D0F8003154F80C00036823F01F030360D8
:1014C000056815F00105FBD104EB0C033D2493F8EE
:1014D0000CC05F6804FA0CF43C6021240560446190
:1014E00012B1987B00F054F83046F8BD0130A3E704
:1014F000D044000800440258B823002010B530241E
:1015000084F31188FFF788FF002383F3118810BD4F
:1015100010B50446807B00F051F801231549627B29
:1015200003FA02F20B6823EA0203DAB20B6072B923
:10153000114AD2F8D81021F00101C2F8D810D2F81F
:10154000001121F00101C2F80011D2F8002113F4BA
:101550007F4F0ED1084BD3F8D82022F00202C3F8F7
:10156000D820D3F8002122F00202C3F80021D3F8DA
:10157000003110BDB82300200044025808B53023C4
:1015800083F31188FFF7C4FF002383F3118808BD9C
:10159000090100F16043012203F56143C9B283F8F8
:1015A000001300F01F039A4043099B0003F16043BE
:1015B00003F56143C3F880211A60704700F01F03F0
:1015C00001229A40430900F160409B0000F5614010
:1015D00003F1604303F56143C3F88020C3F8802121
:1015E000002380F8003370470268436811430160AC
:1015F00003B118477047000013B5406B00F58054E5
:10160000D4F8A4381A681178042914D1017C02296D
:1016100011D11979012312898B4013420BD101A9F1
:101620004C3002F017FAD4F8A4480246019B217905
:10163000206800F005FA02B010BD0000143002F07E
:1016400099B900004FF0FF33143002F093B9000055
:101650004C3002F06BBA00004FF0FF334C3002F018
:1016600065BA0000143002F067B900004FF0FF3196
:10167000143002F061B900004C3002F037BA0000BB
:101680004FF0FF324C3002F031BA000010B500F5D7
:101690008054D4F8A4381A681178042917D1017C31
:1016A000022914D15979012352898B4013420ED15A
:1016B000143002F0FBF8024648B1D4F8A4484FF4C5
:1016C000407361792068BDE8104000F0A7B910BDF3
:1016D000406BFFF7DBBF000000290CBF6FF0130069
:1016E00000207047704700007FB5124B012504268B
:1016F000044603600023057400F184024360294618
:10170000C0E902330C4B0290143001934FF4407344
:10171000009602F0A7F8094B04F69442294604F11A
:101720004C000294CDE900634FF4407302F06EF96F
:1017300004B070BDD0450008D1160008F9150008A6
:10174000302383F311880B790A680B3342F82300A6
:101750004B79133342F823008B7913B10B3342F8E2
:10176000230000F58053C3F8A4180223037400205B
:1017700080F311887047000038B5037F044613B129
:1017800090F85430ABB90125201D0221FFF72CFF42
:1017900004F114006FF00101257700F0BFFC04F1A3
:1017A0004C0084F854506FF00101BDE8384000F05F
:1017B000B5BC38BD10B5012104460430FFF714FF55
:1017C0000023237784F8543010BD000038B5044658
:1017D0000025143002F05EF804F14C00257702F089
:1017E0002DF9201D84F854500121FFF7FDFE2046FD
:1017F000BDE83840FFF74ABF90F8803003F060033F
:10180000202B06D190F881200023212A03D81F2AFB
:1018100006D800207047222AFBD1C0E91D3303E01F
:10182000034A426707228267C3670120704700BFEF
:101830002C22002037B500F58055D5F8A4381A6859
:10184000117804291AD1017C022917D119790123B1
:1018500012898B40134211D100F14C04204602F052
:10186000ADF958B101A9204602F0F4F8D5F8A44822
:101870000246019B2179206800F0E2F803B030BDF8
:101880002DE9F34104460D4621B301F10B0350F855
:101890002360FEB1302383F3118800EB810706F14A
:1018A0004C08FB685B691B6833B1404602F0E0F806
:1018B0000821301DFFF798FE01A9404602F0CAF842
:1018C000024650B1019B2946204600F0B9F800239A
:1018D00083F3118802B0BDE8F081FB685A69126891
:1018E00032B11B8A013B134002D104F18002EAE7C6
:1018F0001021301DFFF778FEE9E7000038B509B385
:10190000133150F82140ECB1302383F3118804F5F2
:101910008053D3F8A4281368527903EB8203DB6861
:101920009B695D6845B104216018FFF75DFE29469B
:1019300004F1140001F0C4FF2046FFF7A7FE0023C6
:1019400083F3118838BD00007047000010B50446CD
:10195000002101F063FF0021204601F053FF63687E
:101960001B6813B1062120469847A36823F0011392
:10197000A3600023A367062384F8703010BD000025
:1019800001F03EBA01234022002110B5044600F8C0
:10199000303BFFF799FA0023C4E9013310BD000082
:1019A00010B53023044683F31188242241600021BE
:1019B0000C30FFF789FA204601F044FA0223002098
:1019C000237080F3118810BD70B500EB81030546CC
:1019D00050690E461446DA6018B110220021FFF754
:1019E00073FAA06918B110220021FFF76DFA314691
:1019F0002846BDE8704001F02DBB0000836820221E
:101A0000002103F0011310B5044683601030FFF786
:101A10005BFA2046BDE8104001F0A8BBF0B40125F8
:101A200000EB810447898D40E4683D43A46945810A
:101A300023600023A2606360F0BC01F0C5BB00001E
:101A4000F0B4012500EB810407898D40E4683D4333
:101A50006469058123600023A2606360F0BC01F02B
:101A60003BBC000070B5022300250446242203700D
:101A70002946C0F888500C30C56640F8045CFFF772
:101A800023FA204684F8705001F076FA63681B68E8
:101A900023B129462046BDE87040184770BD0000BC
:101AA0000378052B10B504460AD080F88C30052346
:101AB000037043681B680BB1042198470023A3609F
:101AC00010BD00000178052906D190F88C204368EC
:101AD00002701B6803B118477047000070B590F89A
:101AE000703004463BB1836823F001138360002308
:101AF000836780F8703004F180020021204601F0F5
:101B000059FB63689B684BB994F8803013F060050B
:101B100028D02046BDE87040FFF718BF2046984700
:101B20000028F1D0B4F88630A26F9A4288BFA3672C
:101B300094F98030A56F002B4FF0300380F20281C2
:101B4000002D00F0F180092284F8702083F31188C1
:101B500000212046D4E91D23FFF772FF002383F301
:101B6000118870BD94F8812003F07F0343EA0223BB
:101B700040F20232934200F0C48021D8B3F5807F56
:101B800047D00DD8012B3ED0022B00F09280002BC5
:101B9000BFD104F1880262670222A267E367C1E74E
:101BA000B3F5817F00F09A80B3F5407FB1D194F80E
:101BB0008230012BADD1B4F8883043F0020331E01C
:101BC000B3F5006F4CD017D8B3F5A06F30D0A3F5A4
:101BD000C063012B9DD86368204694F882205E681C
:101BE00094F88310B4F88430B047002891D043684B
:101BF00063670368A36719E0B3F5106F35D040F64B
:101C00000242934285D15C4B63670223A3670023A2
:101C1000C4E794F88230012B7FF47BAFB4F88830AE
:101C200023F00203A4F88830C4E91D55E56779E77D
:101C3000B4F88030B3F5A06F0ED194F8823020460E
:101C400084F88A3001F0F8F963681B6813B1012148
:101C500020469847032323700023C4E91D339DE7E2
:101C600004F18B0363670123C4E72378042B10D1AD
:101C7000302383F311882046FFF7C0FE85F31188D7
:101C80000321636884F88B5021701B680BB12046D8
:101C9000984794F88230002BDED084F88B300423F0
:101CA000237063681B68002BD6D00221204698471A
:101CB000D2E794F8843020461D0603F00F010AD5C0
:101CC00001F06AFA012804D002287FF422AF2B4BDE
:101CD0009AE72B4B98E701F051FAF3E794F882303A
:101CE000002B7FF416AF94F8843013F00F01B3D0BB
:101CF0001A06204602D501F0A9FDADE701F09AFDD4
:101D0000AAE794F88230002B7FF403AF94F8843074
:101D100013F00F01A0D01B06204602D501F07EFD76
:101D20009AE701F06FFD97E7142284F8702083F39F
:101D300011882B462A4629462046FFF76FFE85F379
:101D400011880EE75DB1152284F8702083F31188A5
:101D500000212046D4E91D23FFF760FEFEE60B229A
:101D600084F8702083F311882B462A4629462046A2
:101D7000FFF766FEE3E700BF00460008F8450008ED
:101D8000FC45000838B590F8703004460B2B09D894
:101D90000B2B37D8DFE803F00836363636360836F0
:101DA000360D2737152B2DD12046BDE83840FFF7DB
:101DB000CDBD856FB0F886309D4214D2C3681B8AB2
:101DC000B5FBF3F203FB12556DB9302383F3118891
:101DD0002B462A462946FFF733FE85F311880A234E
:101DE00084F870300EE0142384F87030302383F3CD
:101DF0001188002320461A461946FFF70FFE0023DC
:101E000083F3118838BDC36F03B19847A36823F0EB
:101E10000113A3600023A367E2E7000010B590F868
:101E200070300446142B1ED00CD8062B05D001D8D8
:101E30001BB110BD0A3B012BFBD82046BDE810406A
:101E4000FFF784BD152BF4D10B2380F870303023BD
:101E500083F3118800231A461946FFF7F1FD00238A
:101E600083F31188E5E7C3689B695B68002BE0D1C9
:101E7000C36F03B19847A36823F00113A360002345
:101E8000A36784F87030D4E7002382680375036980
:101E90001B6899689142FBD25A68036042601060E7
:101EA0005860704700238268037503691B6899684E
:101EB0009142FBD85A6803604260106058607047D6
:101EC00008B50846302383F311880A7D0023052ACC
:101ED00006D8DFE802F00B050503120E82691360D5
:101EE0004FF0FF338361FFF7CFFF002383F31188A7
:101EF00008BD8269936801339360D0E900321360B2
:101F00005A60EDE7FFF7C0BF38B50A4B1C68DD68C3
:101F10002875226853601A600122DC60A36822756C
:101F2000934201D100F014FE29462046BDE8384016
:101F3000FEF768BA402400200C4B30B5DD684B1C1E
:101F400087B004460FD02B46094A684600F07AF95C
:101F50002046FFF7D9FF009B13B1684600F07CF9DB
:101F6000A86907B030BDFFF7CFFFF9E74024002094
:101F7000C11E000870B50F4E04468161F368816888
:101F80009A68914203D8BDE87040FFF77DBF1846BC
:101F9000FFF788FF83680546012B01D100F0DAFDC9
:101FA000012329462046F4602375BDE87040FEF702
:101FB00029BA00BF40240020044B1A68DB689068EF
:101FC0009B68984294BF0020012070474024002065
:101FD00038B50B4B1C68DD68226853601A6001221B
:101FE000DC602275AB68934201D100F0B3FD284656
:101FF000FFF758FF01462046BDE83840FEF702BA19
:102000004024002038B50123084C0025237065606A
:1020100001F00AFE01F034FE0549064801F010FF08
:102020000223237085F3118838BD00BFA826002045
:10203000084600084024002000F044B9034A5168D3
:1020400053685B1A9842FBD8704700BF001000E04D
:102050008B600223086108468B8270478368A3F176
:10206000840243F8142C026943F8442C426943F873
:10207000402C094A43F8242CC268A3F1200043F8FD
:10208000182C022203F80C2C002203F80B2C034A14
:1020900043F8102C704700BF1D04000840240020A6
:1020A00008B5FFF7DBFFBDE80840FFF72BBF0000D6
:1020B000024BDB6898610F20FFF726BF4024002009
:1020C000302383F31188FFF7F3BF000008B5014602
:1020D000302383F311880820FFF72EFF002383F3BA
:1020E000118808BD064BDB6839B1426818605A6038
:1020F000136043600420FFF71FBF4FF0FF307047AD
:10210000402400200368984206D01A68026050609C
:1021100018469961FFF7F6BE7047000038B50446CF
:102120000D462068844200D138BD036823605C609E
:102130008561FFF7E7FEF4E7036810B59C68A242EB
:102140000CD85C688A600B604C60216059609968AB
:102150008A1A9A604FF0FF33836010BD121B1B6810
:10216000ECE700000A2938BF0A2170B504460D4685
:102170000A26601901F054FD01F040FD041BA54240
:1021800003D8751C04462E46F3E70A2E04D9012015
:10219000BDE8704001F094BE70BD0000F8B5144B6E
:1021A0000D460A2A4FF00A07D96103F11001826037
:1021B00038BF0A22416019691446016048601861FD
:1021C000A81801F01FFD01F019FD431B0646A342AC
:1021D00006D37C1C28192746354601F021FDF2E77D
:1021E0000A2F04D90120BDE8F84001F069BEF8BD0E
:1021F00040240020F8B506460D4601F0FFFC0F4ACA
:10220000134653F8107F9F4206D12A4601463046B6
:10221000BDE8F840FFF7C2BFD169BB68441A2C196A
:1022200028BF2C46A34202D92946FFF79BFF22462E
:1022300031460348BDE8F840FFF77EBF4024002048
:1022400050240020C0E90323002310B45DF8044BA0
:102250004361FFF7CFBF000010B5194C23699842C6
:102260000DD08168D0E9003213605A609A680A4440
:102270009A60002303604FF0FF33A36110BD026832
:10228000234643F8102F53600022026022699A42CD
:1022900003D1BDE8104001F0BDBC936881680B44D8
:1022A000936001F0ABFC2269E1699268441AA24292
:1022B000E4D91144BDE81040091AFFF753BF00BF2D
:1022C000402400202DE9F047DFF8BC8008F110071A
:1022D0002C4ED8F8105001F091FCD8F81C40AA6898
:1022E000031B9A423ED814444FF00009D5E900324E
:1022F000C8F81C4013605A60C5F80090D8F8103038
:10230000B34201D101F086FC89F31188D5E903318C
:1023100028469847302383F311886B69002BD8D067
:1023200001F06CFC6A69A0EB040982464A450DD2B3
:10233000022001F0C5FD0022D8F81030B34208D1C8
:1023400051462846BDE8F047FFF728BF121A22443D
:10235000F2E712EB09092946384638BF4A46FFF72B
:10236000EBFEB5E7D8F81030B34208D01444C8F8F3
:102370001C00211AA960BDE8F047FFF7F3BEBDE8D5
:10238000F08700BF50240020402400200020704728
:10239000FEE70000704700004FF0FF30704700007C
:1023A00002290CD0032904D00129074818BF0020B6
:1023B0007047032A05D8054800EBC200704704485F
:1023C00070470020704700BFE04600083C22002014
:1023D0009446000870B59AB005460846144601A90F
:1023E00000F0C2F801A8FEF767FD431C0022C6B248
:1023F0005B001046C5E9003423700323023404F85F
:10240000013C01ABD1B202348E4201D81AB070BD8A
:1024100013F8011B013204F8010C04F8021CF1E767
:1024200008B5302383F311880348FFF703FA00232C
:1024300083F3118808BD00BFB026002090F88030DB
:1024400003F01F02012A07D190F881200B2A03D143
:102450000023C0E91D3315E003F06003202B08D1F1
:10246000B0F884302BB990F88120212A03D81F2A94
:1024700004D8FFF7C1B9222AEBD0FAE7034A426732
:1024800007228267C3670120704700BF3322002004
:1024900007B5052917D8DFE801F019160319192027
:1024A000302383F31188104A01210190FFF78CFA41
:1024B000019802210D4AFFF787FA0D48FFF786F9C8
:1024C000002383F3118803B05DF804FB302383F30A
:1024D00011880748FFF750F9F2E7302383F311889A
:1024E0000348FFF767F9EBE7344600085846000851
:1024F000B026002038B50C4D0C4C2A460C4904F18E
:102500000800FFF767FF05F1CA0204F1100009494E
:10251000FFF760FF05F5CA7204F118000649BDE82F
:102520003840FFF757BF00BF883F00203C22002003
:10253000144600081E4600082946000870B50446E7
:1025400008460D46FEF7B8FCC6B2204601340378B3
:102550000BB9184670BD32462946FEF799FC002893
:10256000F3D10120F6E700002DE9F04705460C46BF
:10257000FEF7A2FC2A49C6B22846FFF7DFFF08B1E2
:102580000D36F6B227492846FFF7D8FF08B11036B6
:10259000F6B2632E0BD8DFF88880DFF88890224FE0
:1025A000DFF890A02E7846B92670BDE8F08729465E
:1025B0002046BDE8F04701F055BF252E2CD107225B
:1025C00041462846FEF764FC60B9184B224603F1E9
:1025D000140153F8040B8B4242F8040BF9D1073570
:1025E0001434DFE7082249462846FEF751FC98B923
:1025F000A21C0F4B197802320909C95D02F8041CAC
:1026000013F8011B01F00F015345C95D02F8031CCB
:10261000F0D118340835C5E7013504F8016BC1E77E
:1026200000470008294600081D4700080847000821
:1026300000E8F11F0CE8F11FBFF34F8F044B1A693C
:102640005107FCD1D3F810215207F8D1704700BFD1
:102650000020005208B50D4B1B78ABB9FFF7ECFF1B
:102660000B4BDA68D10704D50A4A5A6002F1883266
:102670005A60D3F80C21D20706D5064AC3F80421C4
:1026800002F18832C3F8042108BD00BFE6410020F2
:10269000002000522301674508B5114B1B78F3B9A0
:1026A000104B1A69510703D5DA6842F04002DA602C
:1026B000D3F81021520705D5D3F80C2142F040027F
:1026C000C3F80C21FFF7B8FF064BDA6842F00102AD
:1026D000DA60D3F80C2142F00102C3F80C2108BDE6
:1026E000E6410020002000520F289ABF00F58060CC
:1026F00040040020704700004FF400307047000095
:10270000102070470F2808B50BD8FFF7EDFF00F534
:1027100000330268013204D104308342F9D1012030
:1027200008BD0020FCE700000F2838B505463FD85B
:10273000FFF782FF1F4CFFF78DFF4FF0FF33072895
:102740006361C4F814311DD82361FFF775FF0302DC
:1027500043F02403E360E36843F08003E36023690C
:102760005A07FCD42846FFF767FFFFF7BDFF4FF479
:10277000003100F0C5F92846FFF78EFFBDE838406C
:10278000FFF7C0BFC4F81031FFF756FFA0F10803F0
:102790001B0243F02403C4F80C31D4F80C3143F08D
:1027A0008003C4F80C31D4F810315B07FBD4D9E7AF
:1027B000002038BD002000522DE9F84F04460D4698
:1027C000104644EA0203DE0602D00020BDE8F88F7E
:1027D00020F01F00DFF8D4B0DFF8D4A0FFF73AFFF5
:1027E00005EB0008454503D10120FFF755FFEDE754
:1027F00020222946204601F025FE10B9203420353C
:10280000F0E7234604F120021F68791CDDD1043370
:102810009342F9D104F178432048214EB3F5801F4B
:10282000204B38BF184603F1F80332BFD946D146D2
:102830001E46FFF701FF0760A4EB050C336805F1A6
:102840001C0143F0020333602B1FD9F8007017F00E
:102850000507FAD153F8042F8B424CF80320F4D12A
:10286000BFF34F8FFFF7E8FE4FF0FF33036033688D
:1028700023F002033360BFF34F8F0B4BC3F85C426E
:10288000BFF34F8FBFF36F8F20222946204601F000
:10289000D9FD0028B2D03846A7E700BF1421005266
:1028A0000C2000521420005200ED00E010200052D5
:1028B0001021005210B5084C237828B11BB9FFF73E
:1028C000C9FE0123237010BD002BFCD02070BDE891
:1028D0001040FFF7E1BE00BFE64100202DE9F04FB8
:1028E0000D4685B0814658B111F00D0614BF202267
:1028F000082211F00803019304D0431E03426AD05A
:10290000002435E0002E37D009F11F0121F01F0906
:102910004FF00108324F05F00403DFF8D0A005EABC
:10292000080BBBF1000F32D07869C0072FD408F133
:1029300001080C37B8F1060FF3D19EB9294D49466D
:10294000A819019201F0BEF9044600283AD11836C0
:10295000019A782EF3D1494601F0B4F904460028D3
:1029600030D1019A4946204801F0ACF9044668BBD1
:10297000204605B0BDE8F08F0029C9D101462846A0
:10298000029201F09FF90446E0B9029AC0E713B140
:1029900078694107CBD5AC0702D578698007C6D5E1
:1029A000019911B178690107C1D51820494600FB8A
:1029B00008A0CDE9022301F085F90446DDE90223F0
:1029C0000028B4D04A460021204601E04A460021B2
:1029D000FEF77AFACCE70246002E95D198E700BFC1
:1029E0003047000818420020E84100200042002043
:1029F0000121FFF773BF0000F8B500231A461A60E3
:102A00000433B3F5806FFAD1114D01241827114E0C
:102A100007FB046001342A6955F80C1F01F03EF9E8
:102A2000062CF5D137254FF4C0542046FFF7E0FFC0
:102A3000014628B122460848BDE8F84001F02EB909
:102A4000C4EBC404013D4FEAD404EED1F8BD00BF8D
:102A50003047000800420020E841002008B101F0A2
:102A6000ABB970470244074BD2B210B5904200D1C7
:102A700010BD441C00B253F8200041F8040BE0B232
:102A8000F4E700BF504000580E4B30B51C6F2404D3
:102A900005D41C6F1C671C6F44F400441C670A4C6F
:102AA00002442368D2B243F480732360074B904200
:102AB00000D130BD441C51F8045B00B243F82050F3
:102AC000E0B2F4E700440258004802585040005871
:102AD00007B5012201A90020FFF7C4FF019803B048
:102AE0005DF804FB13B50446FFF7F2FFA04205D0E2
:102AF000012201A900200194FFF7C6FF02B010BD1A
:102B00000144BFF34F8F064B884204D3BFF34F8F6E
:102B1000BFF36F8F7047C3F85C022030F4E700BF4B
:102B200000ED00E0034B1A681AB9034AD2F8D0242A
:102B30001A607047904200200040025808B5FFF725
:102B4000F1FF024B1868C0F3806008BD904200207E
:102B50007047000070470000EFF3098305496833B0
:102B60004A6B22F001024A6383F30988002383F34E
:102B70001188704700EF00E0302080F3118862B6C2
:102B80000D4B0E4AD96821F4E0610904090C0A438F
:102B90000B49DA60D3F8FC2042F08072C3F8FC20C5
:102BA000084AC2F8B01F116841F0010111602022EB
:102BB000DA7783F82200704700ED00E00003FA05A1
:102BC00055CEACC5001000E0302310B583F311885A
:102BD0000E4B5B6813F4006314D0F1EE103AEFF380
:102BE00009844FF08073683CE361094BDB6B23661B
:102BF00084F30988FFF7E0F910B1064BA36110BD1B
:102C0000054BFBE783F31188F9E700BF00ED00E017
:102C100000EF00E02F0400083204000870B5BFF395
:102C20004F8FBFF36F8F1A4A0021C2F85012BFF3C3
:102C30004F8FBFF36F8F536943F400335361BFF37A
:102C40004F8FBFF36F8FC2F88410BFF34F8FD2F84E
:102C5000803043F6E074C3F3C900C3F34E335B0125
:102C600003EA0406014646EA81750139C2F860525A
:102C7000F9D2203B13F1200FF2D1BFF34F8F5369EC
:102C800043F480335361BFF34F8FBFF36F8F70BD39
:102C900000ED00E0FEE70000214B2248224A70B51B
:102CA000904237D3214BC11EDA1C121A22F00302C4
:102CB0008B4238BF00220021FEF706F91C4A002390
:102CC000C2F88430BFF34F8FD2F8803043F6E074FF
:102CD000C3F3C900C3F34E335B0103EA04060146A4
:102CE00046EA81750139C2F86C52F9D2203B13F1E2
:102CF000200FF2D1BFF34F8FBFF36F8FBFF34F8F12
:102D0000BFF36F8F0023C2F85032BFF34F8FBFF372
:102D10006F8F70BD53F8041B40F8041BC0E700BF61
:102D200054490008044400200444002004440020C6
:102D300000ED00E0074BD3F8D81021EA0001C3F8FA
:102D4000D810D3F8002122EA0002C3F80021D3F8FA
:102D5000003170470044025870B5D0E92443002286
:102D60004FF0FF359E6804EB42135101D3F8000980
:102D7000002805DAD3F8000940F08040C3F80009C4
:102D8000D3F8000B002805DAD3F8000B40F08040A0
:102D9000C3F8000B013263189642C3F80859C3F810
:102DA000085BE0D24FF00113C4F81C3870BD00007E
:102DB000F0B5D0E9246301250C309F6800231A4642
:102DC00050F8041B59B18C6924B103F1100405FAC1
:102DD00004F42243496911B105FA03F10A430133AE
:102DE0009F42EDD2C6F81C28F0BD0000890141F0D9
:102DF0002001016103699B06FCD41220FFF71EB974
:102E000010B50A4C2046FEF7BDFD094BC4F89030C2
:102E1000084BC4F89430084C2046FEF7B3FD074B2E
:102E2000C4F89030064BC4F8943010BD9442002092
:102E3000000008409C470008304300200000044088
:102E4000A847000870B503780546012B5CD1434BB9
:102E5000D0F89040984258D1414B0E216520D3F8CC
:102E6000D82042F00062C3F8D820D3F8002142F005
:102E70000062C3F80021D3F80021D3F8802042F08B
:102E80000062C3F88020D3F8802022F00062C3F8EB
:102E90008020D3F88030FEF77BFB324BE360324B6F
:102EA000C4F800380023D5F89060C4F8003EC02371
:102EB00023604FF40413A3633369002BFCDA01236E
:102EC0000C203361FFF7BAF83369DB07FCD412201A
:102ED000FFF7B4F83369002BFCDA00262846A66019
:102EE000FFF73AFF6B68C4F81068DB68C4F8146831
:102EF000C4F81C6883BB1D4BA3614FF0FF336361B3
:102F0000A36843F00103A36070BD194B9842C9D177
:102F1000134B4FF08060D3F8D82042F00072C3F812
:102F2000D820D3F8002142F00072C3F80021D3F872
:102F30000021D3F8802042F00072C3F88020D3F83B
:102F4000802022F00072C3F88020D3F88030FFF791
:102F5000F1FE0E214D209EE7064BCDE79442002066
:102F6000004402584014004003002002003C30C0DE
:102F700030430020083C30C0F8B5D0F890400546FA
:102F800000214FF000662046FFF730FFD5F894107F
:102F900000234FF001128F684FF0FF30C4F834382F
:102FA000C4F81C2804EB431201339F42C2F80069A5
:102FB000C2F8006BC2F80809C2F8080BF2D20B681D
:102FC000D5F89020C5F89830636210231361166914
:102FD00016F01006FBD11220FFF730F8D4F80038B5
:102FE00023F4FE63C4F80038A36943F4402343F09C
:102FF0001003A3610123C4F810380923C4F814385E
:103000000B4BEB604FF0C043C4F8103B094BC4F8C6
:10301000003BC4F81069C4F80039D5F8983003F1C2
:10302000100243F48013C5F89820A362F8BD00BFD6
:103030007847000840800010D0F8902090F88A105F
:10304000D2F8003823F4FE6343EA0113C2F80038D3
:10305000704700002DE9F84300EB8103D0F8905051
:103060000C468046DA680FFA81F94801166806F0C6
:103070000306731E022B05EB41134FF0000194BFB2
:10308000B604384EC3F8101B4FF0010104F11003D1
:1030900098BF06F1805601FA03F3916998BF06F5CF
:1030A000004600293AD0578A04F1580137434901B4
:1030B0006F50D5F81C180B430021C5F81C382B188D
:1030C0000127C3F81019A7405369611E9BB3138AE7
:1030D000928B9B08012A88BF5343D8F898209818F0
:1030E00042EA034301F140022146C8F8980028460D
:1030F00005EB82025360FFF779FE08EB8900C36895
:103100001B8A43EA845348341E4364012E51D5F888
:103110001C381F43C5F81C78BDE8F88305EB491738
:10312000D7F8001B21F40041C7F8001BD5F81C1884
:1031300021EA0303C0E704F13F030B4A2846214676
:1031400005EB83035A60FFF751FE05EB4910D0F8F9
:10315000003923F40043C0F80039D5F81C3823EABD
:103160000707D7E70080001000040002D0F8942081
:103170001268C0F89820FFF7EFBD00005831D0F872
:10318000903049015B5813F4004004D013F4001F41
:103190000CBF0220012070474831D0F8903049011F
:1031A0005B5813F4004004D013F4001F0CBF02203E
:1031B0000120704700EB8101CB68196A0B6813602E
:1031C0004B6853607047000000EB810330B5DD6849
:1031D000AA691368D36019B9402B84BF40231360D8
:1031E0006B8A1468D0F890201C4402EB4110013C1B
:1031F00009B2B4FBF3F46343033323F0030343EA5C
:10320000C44343F0C043C0F8103B2B6803F00303F2
:10321000012B0ED1D2F8083802EB411013F4807F55
:10322000D0F8003B14BF43F0805343F00053C0F884
:10323000003B02EB4112D2F8003B43F00443C2F8DA
:10324000003B30BD2DE9F041D0F8906005460C46BA
:1032500006EB4113D3F8087B3A07C3F8087B08D57F
:10326000D6F814381B0704D500EB8103DB685B68D4
:103270009847FA071FD5D6F81438DB071BD505EB9E
:103280008403D968CCB98B69488A5A68B2FBF0F6D6
:1032900000FB16228AB91868DA6890420DD2121A19
:1032A000C3E90024302383F3118821462846FFF721
:1032B0008BFF84F31188BDE8F081012303FA04F247
:1032C0006B8923EA02036B81CB68002BF3D0214684
:1032D0002846BDE8F041184700EB81034A0170B56C
:1032E000DD68D0F890306C692668E66056BB1A44F9
:1032F0004FF40020C2F810092A6802F00302012AE4
:103300000AB20ED1D3F8080803EB421410F4807F00
:10331000D4F8000914BF40F0805040F00050C4F8C9
:10332000000903EB4212D2F8000940F00440C2F851
:1033300000090122D3F8340802FA01F10143C3F86D
:10334000341870BD19B9402E84BF40202060206819
:103350001A442E8A8419013CB4FBF6F440EAC440B6
:1033600040F00050C6E700002DE9F84FD0F890601B
:1033700005460C464F0106EB4113D3F8088918F0B7
:10338000010FC3F808891CD0D6F81038DB0718D510
:1033900000EB8103D3F80CC0DCF81430D3F800E064
:1033A000DA68964533D2A2EB0E024FF000091A609C
:1033B000C3F80490302383F31188FFF78DFF89F35E
:1033C000118818F0800F20D0D6F834380126A64096
:1033D00033421AD005EB84030134D5F890506FF0D6
:1033E0000308D3F80CC0E4B22F44DCF8140005EB5A
:1033F0000434D0F800E0D0F80490F14514D3D5F8A7
:10340000343823EA0606C5F83468BDE8F88F01238E
:1034100003FA01F2038923EA02030381DCF808308E
:10342000002BCED09847CCE7AEEB0903BCF81020B8
:10343000934228BF1346D7F8182992B2B3EB820FF4
:10344000E3D88268194602EB030B0329ABEB010AB0
:103450001CD84FEA930A23F0030B08FB0A3193446C
:1034600079B1022918D0032918D19BF80210090458
:103470009BF801B041EA0B2112F82AA04AEA0101A7
:1034800021601A444B4482604360B4E7DAF800A03C
:103490000439C4F800A0D8E70021E9E70021EBE7F0
:1034A0002DE9F74F0446D0F890504FF040094FF007
:1034B000010A6F69AB691F4017F480586F6105D02E
:1034C000204603B0BDE8F04FFEF7CCBA002F15DA66
:1034D000D5F8003E9E0705D0D5F8003E23F0030343
:1034E000C5F8003E2046FFF763FCD5F804382046B7
:1034F00023F00103C5F80438FEF7E4FA380505D5D2
:103500002046FFF729FC2046FEF7CAFAB9040CD57D
:10351000D5F8083813F0060FEB6823F470530CBF8E
:1035200043F4105343F4A053EB603A071AD5636891
:10353000DB681BB9AB6923F00803AB612378052B6B
:1035400008D1D5F8003E204623F00303C5F8003E1D
:10355000FEF7B8FA2046FFF72BFC6368DB680BB177
:1035600020469847FB026ED4BE0209D5D4F89020BD
:103570000026D4F89430F1B29B68994240F29B80C7
:103580003803D5F8186800F1B4807A0335D5F3070D
:1035900003D500212046FFF7E7FEB00703D5012140
:1035A0002046FFF7E1FE710703D502212046FFF711
:1035B000DBFE320703D503212046FFF7D5FEF306D5
:1035C00003D504212046FFF7CFFEB00603D5052121
:1035D0002046FFF7C9FE710603D506212046FFF7F6
:1035E000C3FE320603D507212046FFF7BDFEF305D3
:1035F00003D508212046FFF7B7FEFE0619D5D4F8FB
:103600009060336AC3F30A1203F00F0003F4F0135F
:10361000B3F5802F00F0B280B3F5402F09D104EB51
:103620008000002106F58056C3681B6A8A4240F07C
:103630009880694B1F4203D0B9F101097FF439AF7B
:1036400003B0BDE8F08FD4F890604FF0000BD4F8D1
:1036500094205FFA8BF19268914285D806EB411273
:10366000D2F8000900F44020B0F5802F20D1D2F824
:10367000000900281CDAD2F8000940F09040C2F896
:103680000009D2F800090028FBDBD4F89000019172
:10369000FFF7ACFB019920890AFA01F220EA020245
:1036A000228104EB8102D26892680AB120469047D9
:1036B0000BF1010BCBE702EB4110D0F8003B03F418
:1036C0004023B3F5802F12D1D0F8003B002B0EDA47
:1036D00060890AFA01F320EA0303638104EB8103A2
:1036E000DB68DB681BB1204601929847019A0136DE
:1036F0003FE7F10303D500212046FFF7A3FDB20306
:1037000003D501212046FFF79DFD730303D5022158
:103710002046FFF797FD300303D503212046FFF72E
:1037200091FDF10203D504212046FFF78BFDB20283
:1037300003D505212046FFF785FD730203D5062139
:103740002046FFF77FFD300203D507212046FFF713
:1037500079FDF1017FF519AF08212046FFF772FDD1
:1037600013E7880701D1D6F80080072901F101018C
:103770009CBF03F8018B4FEA182857E704EB800E33
:103780004FF0000C06F58056DEF80C309969D1E94F
:1037900000038968C31A624510D1DEF80C10934209
:1037A0008869D0E901168BBFB618F61852185B1855
:1037B00087BF86604260866043603AE71CF0030F73
:1037C00001D1D6F8008063450CF1010C84BF01F8EB
:1037D000018B4FEA1828DEE73000000408B50348E3
:1037E000FFF75EFEBDE80840FFF7EEB99442002007
:1037F00008B50348FFF754FEBDE80840FFF7E4B9F9
:1038000030430020D0F8903003EB4111D1F8003B59
:1038100043F40013C1F8003B70470000D0F890302B
:1038200003EB4111D1F8003943F40013C1F800391A
:1038300070470000D0F8903003EB4111D1F8003B05
:1038400023F40013C1F8003B70470000D0F890301B
:1038500003EB4111D1F8003923F40013C1F800390A
:103860007047000030B50433039C0172002103FB54
:103870000425C160C0E90653049B0363059BC0E9AE
:103880000000C0E90422C0E90842C0E90A1143630C
:1038900030BD00000022416AC260C0E90411C0E9E5
:1038A0000A226FF00101FEF739BC0000D0E90432B2
:1038B000934201D1C2680AB9181D704700207047B1
:1038C000036919600021C2680132C260C2691344F1
:1038D00082699342036124BF436A0361FEF712BC0D
:1038E00038B504460D46E3683BB162690020131DFC
:1038F0001268A3621344E36207E0237A33B92946CE
:103900002046FEF7EFFB0028EDDA38BD6FF001002E
:10391000FBE70000C368C269013BC360436913440D
:1039200082699342436124BF436A436100238362F7
:10393000036B03B11847704770B53023044683F317
:103940001188866A3EB9FFF7CBFF054618B186F3AA
:103950001188284670BDA36AE26A13F8015B93429E
:10396000A36202D32046FFF7D5FF002383F311881B
:10397000EFE700002DE9F84F04460E46174698463B
:103980004FF0300989F311880025AA46D4F828B0F1
:10399000BBF1000F09D141462046FFF7A1FF20B13E
:1039A0008BF311882846BDE8F88FD4E90A12A7EBFB
:1039B000050B521A934528BF9346BBF1400F1BD904
:1039C000334601F1400251F8040B914243F8040BD5
:1039D000F9D1A36A403640354033A362D4E90A23C3
:1039E0009A4202D32046FFF795FF8AF31188BD4221
:1039F000D8D289F31188C9E730465A46FDF73EFA16
:103A0000A36A5E445D445B44A362E7E710B5029C91
:103A10000433017203FB0421C460C0E906130023D0
:103A2000C0E90A33039B0363049BC0E90000C0E9BB
:103A30000422C0E90842436310BD0000026A6FF02F
:103A40000101C260426AC0E904220022C0E90A22E0
:103A5000FEF764BBD0E904239A4201D1C26822B9BF
:103A6000184650F8043B0B60704700231846FAE7ED
:103A7000C3680021C2690133C3604369134482698A
:103A80009342436124BF436A4361FEF73BBB00009E
:103A900038B504460D46E3683BB1236900201A1D82
:103AA000A262E2691344E36207E0237A33B929464C
:103AB0002046FEF717FB0028EDDA38BD6FF0010055
:103AC000FBE7000003691960C268013AC260C2697D
:103AD000134482699342036124BF436A0361002354
:103AE0008362036B03B118477047000070B5302341
:103AF0000D460446114683F31188866A2EB9FFF7F6
:103B0000C7FF10B186F3118870BDA36A1D70A36A48
:103B1000E26A01339342A36204D3E1692046043987
:103B2000FFF7D0FF002080F31188EDE72DE9F84F73
:103B300004460D46904699464FF0300A8AF31188A4
:103B40000026B346A76A4FB949462046FFF7A0FFB3
:103B500020B187F311883046BDE8F88FD4E90A0711
:103B60003A1AA8EB0607974228BF1746402F1BD9E1
:103B700005F1400355F8042B9D4240F8042BF9D180
:103B8000A36A40364033A362D4E90A239A4204D39D
:103B9000E16920460439FFF795FF8BF3118846450C
:103BA000D9D28AF31188CDE729463A46FDF766F95E
:103BB000A36A3D443E443B44A362E5E7D0E90423C5
:103BC0009A4217D1C3689BB1836A8BB1043B9B1A9D
:103BD0000ED01360C368013BC360C3691A44836994
:103BE0009A42026124BF436A036100238362012376
:103BF000184670470023FBE700F066BA4FF0804399
:103C0000586A70474FF08043002258631A610222BD
:103C1000DA6070474FF080430022DA60704700009E
:103C20004FF0804358637047024B034A1A60034ABF
:103C30005A607047E443002008440020000002203E
:103C4000094B70B5D3E90054661BB04209D8201A5D
:103C500049420840821A954203D8944201D35A60DF
:103C600070BD0020FCE700BFE443002008B530230E
:103C700083F31188FFF7E4FF002383F3118808BD65
:103C800004480121044B03600023C0E901330C30D8
:103C900000F01EB9EC4300206D3C0008CB1D083A33
:103CA00023F00703591A521A012110B4D208002434
:103CB000C0E9004384600C301C605A605DF8044B1E
:103CC00000F006B92DE9F84FCC1D3A4E0D4624F010
:103CD0000703002818BF0646994203D9002420464E
:103CE000BDE8F88F082A06F10C084FEAD40438BF63
:103CF00008224046174600F007F9331D07F1070E6A
:103D0000C7F100099C461B687BB9404600F006F9E4
:103D10003368002BE2D0E000082239469847044679
:103D20000028DCD040E90265D9E703EB0E01D3F8A7
:103D300004A001EA09010AF10102A1F1080003EB64
:103D4000C2028242DED9511AB4EBE10F4FEAE10B15
:103D5000D8D883421AD203F10802A345A0EB02028D
:103D60004FEAE2025A6009D9611CE44300EBC10248
:103D70005C4454601C6840F831401A600446456059
:103D8000404644F8086B00F0C9F8A8E7A245186857
:103D900003D1CCF800001846F0E7013403EBC4016E
:103DA00043F8340001F10800121AD2104A60CCF82E
:103DB0000010F0E7EC430020F8B550F8043C04464E
:103DC00050F8085CA0F1080607332F1D0C35DB08FE
:103DD00040F8043C284600F097F83B469F421A689A
:103DE00001D0B34228D20AB1964225D244F8082C19
:103DF00054F8042C1E60013254F8081C06EBC20073
:103E0000814206D14868024444F8042C0A6844F808
:103E1000082C5868411C03EBC1018E4207D154F8AD
:103E2000042C013202445A6054F8082C1A602846C7
:103E3000BDE8F84000F072B81346CFE7FEE7000097
:103E400070B51B4B0025044686B058600E4685624F
:103E50000163FEF791FE04F11003A560E562C4E979
:103E600004334FF0FF33C4E90044C4E90635FFF7DB
:103E7000C5FE2B46024604F134012046C4E908235E
:103E800080230C4A2565FEF7E3F801230A4AE06027
:103E900000920375684672680192B268CDE9022308
:103EA000064BCDE90435FEF7FBF806B070BD00BF48
:103EB000A8260020B4470008B94700083D3E000886
:103EC000024AD36A1843D062704700BF40240020E2
:103ED000C0E90000816070478368013B002B10B58A
:103EE00083600CDA074BDC684368A0612060636084
:103EF0001C6044600520FEF707F8A06910BD002093
:103F0000FCE700BF4024002008B5302383F311886C
:103F1000FFF7E2FF002383F3118808BD08B53023C3
:103F200083F3118883680133002B836007DC036807
:103F300000211A68026050601846FEF71BF8002343
:103F400083F3118808BD00004B6843608B68836071
:103F5000CB68C3600B6943614B6903628B69436241
:103F60000B6803607047000008B53C4B40F2FF71DE
:103F70003B48D3F888200A43C3F88820D3F8882028
:103F800022F4FF6222F00702C3F88820D3F88820C9
:103F9000D3F8E0200A43C3F8E020D3F808210A430D
:103FA000C3F808212F4AD3F808311146FFF7CCFF98
:103FB00000F5806002F11C01FFF7C6FF00F580608C
:103FC00002F13801FFF7C0FF00F5806002F15401F3
:103FD000FFF7BAFF00F5806002F17001FFF7B4FF50
:103FE00000F5806002F18C01FFF7AEFF00F5806004
:103FF00002F1A801FFF7A8FF00F5806002F1C401FB
:10400000FFF7A2FF00F5806002F1E001FFF79CFFDF
:1040100000F5806002F1FC01FFF796FF02F58C715C
:1040200000F58060FFF790FF00F01CF90E4BD3F80D
:10403000902242F00102C3F89022D3F8942242F079
:104040000102C3F894220522C3F898204FF0605271
:10405000C3F89C20054AC3F8A02008BD00440258BC
:1040600000000258C047000800ED00E01F000803F0
:1040700008B500F0D5F9FDF7C5FF104BD3F8DC20EB
:1040800042F04002C3F8DC20D3F8042122F04002C1
:10409000C3F80421D3F80431094B1A6842F008022E
:1040A0001A601A6842F004021A60FEF73BFDFEF740
:1040B000A3FCBDE80840FEF71DBA00BF004402584B
:1040C0000018024870470000114BD3F8E82042F076
:1040D0000102C3F8E820D3F8102142F00102C3F82E
:1040E00010210C4AD3F81031D36B43F00103D36392
:1040F0004FF08043C7229A624FF0FF32DA6200220B
:104100009A615A63DA605A6001225A611A607047F4
:10411000004402580010005C4FF0804208B511695D
:10412000D3680B40D9B29B076FEA0101116107D533
:10413000302383F31188FDF77FFF002383F3118879
:1041400008BD0000064BD3F8DC200243C3F8DC2096
:10415000D3F804211043C3F80401D3F804317047A5
:104160000044025808B53E4B4FF0FF31D3F8802091
:1041700062F00042C3F88020D3F8802002F00042B1
:10418000C3F88020D3F88020D3F88420C3F88410AB
:10419000D3F884200022C3F88420D3F88400D86F99
:1041A00040F0FF4040F4FF0040F4DF4040F07F006B
:1041B000D867D86F20F0FF4020F4FF0020F4DF40E4
:1041C00020F07F00D867D86FD3F888006FEA40509E
:1041D0006FEA5050C3F88800D3F88800C0F30A0093
:1041E000C3F88800D3F88800D3F89000C3F8901083
:1041F000D3F89000C3F89020D3F89000D3F894003F
:10420000C3F89410D3F89400C3F89420D3F8940022
:10421000D3F89800C3F89810D3F89800C3F8982002
:10422000D3F89800D3F88C00C3F88C10D3F88C1016
:10423000C3F88C20D3F88C20D3F89C2062F00202C3
:10424000C3F89C20D3F89C2002F00202C3F89C2003
:10425000D3F89C30FDF7C0F8BDE8084000F0D4B8B2
:104260000044025808B50122534BC3F80821534BB0
:10427000D3F8F42042F00202C3F8F420D3F81C2152
:1042800042F00202C3F81C210222D3F81C314C4B2D
:10429000DA605A689104FCD54A4A1A6001229A6091
:1042A000494ADA6000221A614FF440429A61444B55
:1042B0009A699204FCD51A6842F480721A603F4BE6
:1042C0001A6F12F4407F04D04FF480321A67002234
:1042D0001A671A6842F001021A60384B1A685007D0
:1042E000FCD500221A611A6912F03802FBD10121B3
:1042F00019604FF0804159605A67344ADA62344A93
:104300001A611A6842F480321A602C4B1A689103C1
:10431000FCD51A6842F480521A601A689204FCD5DF
:104320002C4A2D499A6200225A63196301F57C01D7
:10433000DA6301F2E71199635A64284A1A64284A39
:10434000DA621A6842F0A8521A601C4B1A6802F02E
:104350002852B2F1285FF9D148229A614FF488625D
:10436000DA6140221A621F4ADA641F4A1A651F4A3C
:104370005A651F4A9A6532231E4A1360136803F078
:104380000F03022BFAD10D4A136943F003031361A3
:10439000136903F03803182BFAD14FF00050FFF7E0
:1043A000D1FE4FF08040FFF7CDFE4FF00040BDE85A
:1043B0000840FFF7C7BE00BF00800051004402580C
:1043C0000048025800C000F0020000010000FF0198
:1043D000008890082220400063020901470E05086A
:1043E000DD0BBF0120000020000001100910E000DB
:1043F000000101100020005208B5FFF78DFEBDE856
:104400000840FEF7E1BB000009217A2008B5FDF75E
:10441000BFF807211C20BDE80840FDF7B9B800002F
:1044200008B5FFF79FFE00F00BF8FDF7A9FAFDF7BE
:1044300059F9FFF747FEBDE80840FFF7DDBB000074
:104440007047000010B501390244904201D10020AC
:1044500005E0037811F8014FA34201D0181B10BDED
:104460000130F2E7034611F8012B03F8012B002A73
:10447000F9D1704736326166343437616336396357
:10448000333939360000000012100000121100000C
:104490001213000053544D333248373F3F3F00530F
:1044A000544D3332483733782F3732780053544DD8
:1044B0003332483734332F3735332F373530000018
:1044C00001105A0003105900012058000320560023
:1044D00010000240080002400008024000000B00EB
:1044E00028000240080002400408024006010C00B7
:1044F00040000240080002400808024010020D007F
:1045000058000240080002400C08024016030E004A
:10451000700002400C0002401008024000040F002E
:10452000880002400C0002401408024006051000FA
:10453000A00002400C0002401808024010061100C2
:10454000B80002400C0002401C08024016072F0071
:10455000100402400804024020080240000838000D
:1045600028040240080402402408024006093900D9
:10457000400402400804024028080240100A3A00A1
:1045800058040240080402402C080240160B3B006D
:10459000700402400C04024030080240000C3C0051
:1045A000880402400C04024034080240060D440016
:1045B000A00402400C04024038080240100E4500DE
:1045C000B80402400C0402403C080240160F4600AA
:1045D0000000000059160008451600088116000862
:1045E0006D160008791600086516000851160008B7
:1045F0003D160008D9160008000000000100000068
:1046000000000000633000000446000898240020E9
:10461000A82600204172647550696C6F74002542B1
:104620004F415244252D424C002553455249414C9F
:1046300025000000020000000000000081180008B2
:10464000FD18000840004000583F0020683F00204F
:104650000200000000000000030000000000000055
:10466000491900080000000010000000783F0020F9
:104670000000000001000000000000009442002043
:104680000101020091240008A12300083D24000834
:1046900021240008430000009C4600080902430052
:1046A000020100C0320904000001020201000524D9
:1046B0000010010524010001042402020524060063
:1046C00001070582030800FF09040100020A000037
:1046D00000070501024000000705810240000000BC
:1046E00012000000E846000812011001020000401C
:1046F00009124157000201020301000004030904EA
:1047000025424F41524425004C656374726F6E2DF3
:104710005069352D4C696768742D48370030313247
:10472000333435363738394142434445460000007A
:104730000000002000000200020000000000003025
:104740000000040008000000000000240000080031
:10475000040000000004000000FC00000200000053
:104760000000043000800000080000000000003855
:10477000000001000100000000000000DD1A000838
:10478000851D00081D1E000840004000CC4300208D
:10479000CC43002001000000DC430020800000002A
:1047A00040010000080000000001000000100000AF
:1047B000080000006D61696E0069646C65000000AE
:1047C0000000802A00020000AAAAAAAA0000002471
:1047D000FFFF00000000000000A00A000000000031
:1047E00000000000AAAAAAAA00000000FFFF000023
:1047F00000000000000000000000000000000000B9
:10480000AAAAAAAA00000000FFFF00000000000002
:10481000000000000000000000000000AAAAAAAAF0
:1048200000000000FFFF000000000000000000008A
:104830004004000028000000AAAAAAAA0000000064
:10484000FFFF00000000000000000000000000006A
:1048500000000000AAAAAAAA00000000FFFF0000B2
:104860000000000000000000000000000000000048
:10487000AAAAAAAA00000000FFFF00000000000092
:10488000000000000000000000000000AAAAAAAA80
:1048900000000000FFFF000000000000000000001A
:1048A0000000000000000000AAAAAAAA0000000060
:1048B000FFFF0000000000000000000000000000FA
:1048C00000000000AAAAAAAA00000000FFFF000042
:1048D00000000000000000000000000000000000D8
:1048E000AAAAAAAA00000000FFFF00000000000022
:1048F00000000000FFFFFFFFE51B000000000000BC
:1049000000001E0000000000FF000000000000008A
:1049100094440008830400009F44000850040000F1
:10492000AD4400080096000000000800960000005A
:104930000008000004000000FC4600080000000021
:104940000000000000000000000000000000000067
:044950000000000063
:00000001FF
